:100000000C942A000C9434000C9434000C943400AA
:100010000C9434000C9434000C9434000C94340090
:100020000C9434000C9434000C9434000C94340080
:100030000C9434000C9434000C9434000C94340070
:100040000C9434000C9434000C9434000C94340060
:100050000C94340011241FBECFE5D8E0DEBFCDBF25
:100060000E9436000C946B000C9400008FEF8ABB4A
:1000700020E030E013C04BB381E090E0022E02C0DC
:10008000880F991F0A94E2F7842B8BBB8FE39CE9BE
:100090000197F1F700C000002F5F3F4F2830310576
:1000A00054F327E030E014C04BB381E090E0022E1F
:1000B00002C0880F991F0A94E2F7809584238BBBB6
:1000C0008FE39CE90197F1F700C00000215031094E
:0A00D000332354F7CDCFF894FFCF8F
:00000001FF
