:100000000C942A000C943F000C943F000C943F0089
:100010000C943F000C943F000C943F000C943F0064
:100020000C943F000C943F000C943F000C943F0054
:100030000C943F000C943F000C943F000C943F0044
:100040000C943F000C943F000C943F000C943F0034
:100050000C943F0011241FBECFE5D8E0DEBFCDBF1A
:1000600010E0A0E6B0E0EAECF0E002C005900D92EE
:10007000A036B107D9F70E9441000C9463000C949C
:10008000000080E10E944C000E9451000E94550037
:100090008F5F0E945C00F8CF880F82B984EC86BF26
:1000A000089506B607FEFDCF089584EC86BF06B618
:1000B00007FEFDCF83B1089583B984E886BF06B6F5
:0A00C00007FEFDCF0895F894FFCF6E
:00000001FF
