:100000000C942A000C9447000C9447000C94470071
:100010000C9447000C9447000C9447000C94470044
:100020000C9447000C9447000C9437020C940B027C
:100030000C9447000C9447000C9447000C94470024
:100040000C9447000C9447000C9447000C94470014
:100050000C94470011241FBECFE5D8E0DEBFCDBF12
:1000600010E0A0E6B0E0EAECF4E002C005900D92EA
:10007000A036B107D9F720E0A0E6B0E001C01D929C
:10008000A236B207E1F70E9449000C9463020C9477
:100090000000CF93DF9300D000D0CDB7DEB781E072
:1000A000898393E09A838B831C82CE0101960E9400
:1000B000890143E060E28CED0E94E901FFCFFC0181
:1000C000892B09F445C080818130A9F028F0823065
:1000D00009F1833071F13EC02BB381E090E00180E3
:1000E00002C0880F991F0A94E2F7822B8BBB81E034
:1000F000838380E0089528B381E090E0018002C00E
:10010000880F991F0A94E2F7822B88BB81E08383D2
:1001100080E0089525B381E090E0018002C0880F5F
:10012000991F0A94E2F7822B85BB81E0838380E0EC
:10013000089522B381E090E0018002C0880F991FEA
:100140000A94E2F7822B82BB81E0838380E00895EA
:1001500081E0089581E00895FC01892B09F445C0F0
:1001600080818130A9F028F0823009F1833071F16B
:100170003EC02BB381E090E0018002C0880F991F40
:100180000A94E2F7809582238BBB138280E0089566
:1001900028B381E090E0018002C0880F991F0A9483
:1001A000E2F78095822388BB138280E0089525B30F
:1001B00081E090E0018002C0880F991F0A94E2F765
:1001C0008095822385BB138280E0089522B381E06D
:1001D00090E0018002C0880F991F0A94E2F7809591
:1001E000822382BB138280E0089581E0089581E03C
:1001F0000895FC01892B09F484C08281811141C0DA
:1002000080818130A1F028F08230F9F0833059F1FB
:100210007AC02AB381E090E0018002C0880F991F64
:100220000A94E2F7809582238ABB80E0089527B381
:1002300081E090E0018002C0880F991F0A94E2F7E4
:100240008095822387BB80E0089524B381E090E00D
:10025000018002C0880F991F0A94E2F780958223DB
:1002600084BB80E0089521B381E090E0018002C06A
:10027000880F991F0A94E2F78095822381BB80E062
:100280000895813009F041C08081813099F028F0D3
:100290008230E9F0833041F13AC02AB381E090E046
:1002A000018002C0880F991F0A94E2F7822B8ABB53
:1002B00080E0089527B381E090E0018002C0880FBC
:1002C000991F0A94E2F7822B87BB80E0089524B33C
:1002D00081E090E0018002C0880F991F0A94E2F744
:1002E000822B84BB80E0089521B381E090E00180FF
:1002F00002C0880F991F0A94E2F7822B81BB80E02D
:10030000089581E0089581E0089580E0089581E0F6
:100310000895CF93DF93EC010E94F900209779F0C4
:100320008B81811105C0CE010E94AC0080E00AC023
:10033000813039F4CE010E945F0080E003C081E08B
:1003400001C080E0DF91CF9108958CBF0895CF93D5
:10035000DF930097D1F1909361008093600013BE0A
:1003600033B7FC012081232B23BF2181211104C03D
:1003700023B72F7C23BF03C033B7232B23BFEC014C
:100380008B810E94A5018C81882319F083B7806836
:1003900083BF89B78C7F89BF8D81813021F489B774
:1003A000816089BF0BC0823021F489B7826089BF28
:1003B00005C0833019F489B7836089BF93B78A81F8
:1003C000892B83BF789481E001C080E0DF91CF91D9
:1003D0000895CF93DF93CDB7DEB72A970FB6F89481
:1003E000DEBF0FBECDBF98E499836A834B838C83B5
:1003F0001D821E8218861F821A861986CE010196DA
:100400000E94A7012A960FB6F894DEBF0FBECDBF9B
:10041000DF91CF9108951F920F920FB60F92112482
:100420002F933F934F935F936F937F938F939F93FC
:10043000AF93BF93EF93FF93E0916000F091610061
:100440000680F781E02D309709F00995FF91EF9133
:10045000BF91AF919F918F917F916F915F914F91DC
:100460003F912F910F900FBE0F901F9018951F92E4
:100470000F920FB60F9211242F933F934F935F93D8
:100480006F937F938F939F93AF93BF93EF93FF935C
:10049000E0916000F09161000084F185E02D3097DB
:1004A00009F00995FF91EF91BF91AF919F918F91C5
:1004B0007F916F915F914F913F912F910F900FBE60
:0A04C0000F901F901895F894FFCFDD
:00000001FF
