:100000000C942E000C9424020C9424020C942402D0
:100010000C9424020C9424020C9424020C942402C8
:100020000C9424020C9424020C9424020C942402B8
:100030000C9424020C9424020C9424020C942402A8
:100040000C9424020C9424020C9424020C94240298
:100050000C942402006000650004560011241FBEA9
:10006000CFE5D8E0DEBFCDBFE4E5F0E040E017C06B
:10007000B591A59135912591059107FD0CC09591FC
:100080008591EF01F92FE82F05900D92A217B30784
:10009000D9F7FE0104C01D92A217B307E1F7EB35B3
:1000A000F40731F70E94CF010C940902F894FFCFB6
:1000B000FC018281813009F07AC08181813019F19F
:1000C00030F08230E1F1833009F455C00895838126
:1000D000813061F42BB381E090E0008002C0880F92
:1000E000991F0A94E2F7822B8BBB08952BB381E012
:1000F00090E0008002C0880F991F0A94E2F7809573
:1001000082238BBB08958381813061F428B381E021
:1001100090E0008002C0880F991F0A94E2F7822BBA
:1001200088BB089528B381E090E0008002C0880F6A
:10013000991F0A94E2F78095822388BB08958381F2
:10014000813061F425B381E090E0008002C0880F27
:10015000991F0A94E2F7822B85BB089525B381E0AD
:1001600090E0008002C0880F991F0A94E2F7809502
:10017000822385BB08958381813061F422B381E0BD
:1001800090E0008002C0880F991F0A94E2F7822B4A
:1001900082BB089522B381E090E0008002C0880F06
:1001A000991F0A94E2F78095822382BB08958111FA
:1001B00079C08181813019F130F08230E1F18330F2
:1001C00009F455C008958381813061F42BB381E037
:1001D00090E0008002C0880F991F0A94E2F7822BFA
:1001E0008BBB08952BB381E090E0008002C0880FA4
:1001F000991F0A94E2F7809582238BBB089583812F
:10020000813061F428B381E090E0008002C0880F63
:10021000991F0A94E2F7822B88BB089528B381E0E6
:1002200090E0008002C0880F991F0A94E2F7809541
:10023000822388BB08958381813061F425B381E0F6
:1002400090E0008002C0880F991F0A94E2F7822B89
:1002500085BB089525B381E090E0008002C0880F3F
:10026000991F0A94E2F78095822385BB08958381C4
:10027000813061F422B381E090E0008002C0880FF9
:10028000991F0A94E2F7822B82BB089522B381E082
:1002900090E0008002C0880F991F0A94E2F78095D1
:0602A000822382BB0895D9
:1002A600FC0182818130C9F58181813091F028F08D
:1002B6008230D9F0833029F108952AB381E090E0A5
:1002C600008002C0880F991F0A94E2F7822B8ABB2E
:1002D600089527B381E090E0008002C0880F991F3F
:1002E6000A94E2F7822B87BB089524B381E090E05D
:1002F600008002C0880F991F0A94E2F7822B84BB04
:10030600089521B381E090E0008002C0880F991F14
:100316000A94E2F7822B81BB089581113CC081814A
:10032600813099F028F08230E9F0833041F1089568
:100336002AB381E090E0008002C0880F991F0A94DA
:10034600E2F7809582238ABB089527B381E090E087
:10035600008002C0880F991F0A94E2F780958223D5
:1003660087BB089524B381E090E0008002C0880F27
:10037600991F0A94E2F78095822384BB089521B3DE
:1003860081E090E0008002C0880F991F0A94E2F78E
:080396008095822381BB0895CC
:10039E00CF93DF9300D000D00F92CDB7DEB785E0BC
:1003AE00E0E6F0E0DE01119601900D928A95E1F7FC
:1003BE00CE0101960E941E02CE0101960E941402E9
:0E03CE008FE493EC0197F1F700C00000F5CF2B
:1003DC00CF93DF93009779F0FC012081283068F4EB
:1003EC002181243060F4EC010E945301CE010E9463
:1003FC00580081E005C080E003C080E001C080E0CF
:06040C00DF91CF9108957D
:10041200EC010E9429020E942802CE010E942A02B7
:06042200CE010E9426023B
:10042800FC01338121E0311120E0FC0123830E948B
:0404380058000895CB
:0C043C00FC01248123830E94EE0108953E
:040448000C94000010
:04044C000E945600B4
:0204500008950D
:0204520008950B
:02045400089509
:0504560001000101019D
:00000001FF
