:100000000C942A000C9434000C9434000C943400AA
:100010000C9434000C9434000C9434000C94340090
:100020000C9434000C9434000C9434000C94340080
:100030000C9434000C9434000C9434000C94340070
:100040000C9434000C9434000C9434000C94340060
:100050000C94340011241FBECFE5D8E0DEBFCDBF25
:100060000E9436000C948C010C940000CF93DF9317
:1000700000D000D0CDB7DEB719821A8281E08B8321
:100080008C83CE0101960E947001FFCFFC01892B69
:1000900009F445C080818130A9F028F0823009F14F
:1000A000833071F13EC02BB381E090E0018002C04B
:1000B000880F991F0A94E2F7822B8BBB81E0838320
:1000C00080E0089528B381E090E0018002C0880FAD
:1000D000991F0A94E2F7822B88BB81E0838380E03A
:1000E000089525B381E090E0018002C0880F991F38
:1000F0000A94E2F7822B85BB81E0838380E0089538
:1001000022B381E090E0018002C0880F991F0A9419
:10011000E2F7822B82BB81E0838380E0089581E057
:10012000089581E00895FC01892B09F445C0808180
:100130008130A9F028F0823009F1833071F13EC09E
:100140002BB381E090E0018002C0880F991F0A94D0
:10015000E2F7809582238BBB138280E0089528B359
:1001600081E090E0018002C0880F991F0A94E2F7B5
:100170008095822388BB138280E0089525B381E0B7
:1001800090E0018002C0880F991F0A94E2F78095E1
:10019000822385BB138280E0089522B381E090E042
:1001A000018002C0880F991F0A94E2F7809582238C
:1001B00082BB138280E0089581E0089581E0089574
:1001C000FC01892B09F484C08281811141C08081A6
:1001D0008130A1F028F08230F9F0833059F17AC0F3
:1001E0002AB381E090E0018002C0880F991F0A9431
:1001F000E2F7809582238ABB80E0089527B381E0EF
:1002000090E0018002C0880F991F0A94E2F7809560
:10021000822387BB80E0089524B381E090E00180D1
:1002200002C0880F991F0A94E2F78095822384BB4D
:1002300080E0089521B381E090E0018002C0880F42
:10024000991F0A94E2F78095822381BB80E008958C
:10025000813009F041C08081813099F028F08230EE
:10026000E9F0833041F13AC02AB381E090E00180A7
:1002700002C0880F991F0A94E2F7822B8ABB80E0A4
:10028000089527B381E090E0018002C0880F991F94
:100290000A94E2F7822B87BB80E0089524B381E0C3
:1002A00090E0018002C0880F991F0A94E2F7822B28
:1002B00084BB80E0089521B381E090E0018002C01A
:1002C000880F991F0A94E2F7822B81BB80E0089582
:1002D00081E0089581E0089580E0089581E0089527
:1002E000CF93DF93EC010E94E000209779F08B819F
:1002F000811105C0CE010E94930080E00AC08130C8
:1003000039F4CE010E94460080E003C081E001C0C4
:0C03100080E0DF91CF910895F894FFCFBA
:00000001FF
