:100000000C942A000C94F4040C9420050C944C05D8
:100010000C9447000C9447000C9447000C94470044
:100020000C9447000C9447000C94A4050C9478059C
:100030000C9447000C9447000C9447000C94470024
:100040000C942D030C9447000C9447000C9447002B
:100050000C94470011241FBECFE5D8E0DEBFCDBF12
:1000600010E0A0E6B0E0E2E7FDE002C005900D92EE
:10007000AE3BB107D9F721E0AEEBB0E001C01D9275
:10008000A530B207E1F70E9421030C94B7060C9447
:100090000000FC010FB6F89460910101709102011B
:1000A00080910301909104010FBE309721F060838D
:1000B00071838283938308950F931F93CF93DF936C
:1000C0008C01C0E0D0E00AC0CE01880F991F880FD4
:1000D000991F800F911F0E946B042196C430D10597
:1000E0009CF3C0E0D0E00BC0CE010496880F991FAE
:1000F000880F991F800F911F0E946B042196C430B6
:10010000D10594F3DF91CF911F910F910895AF9294
:10011000BF92CF92DF92EF92FF920F931F93CF93F4
:10012000DF931F92CDB7DEB77C015B01C12CD12CD0
:100130004CC0198200E010E00CC0C801880F991F64
:10014000880F991F60E08E0D9F1D0E94E6040F5FCF
:100150001F4F043011058CF361E0C601880F991F11
:10016000880F991F8E0D9F1D0E94E6048FE59AEE61
:100170000197F1F700C0000000E010E020C0C801C6
:100180000496880F991F880F991FBE016F5F7F4FDC
:100190008E0D9F1D0E9487048981813071F4C601F4
:1001A000880F991F880F991F8C599F4FFC01E00FF2
:1001B000F11F8081F501808305C00F5F1F4F043060
:1001C0001105ECF2FFEFCF1ADF0A84E0C816D10464
:1001D0000CF4AFCF0F90DF91CF911F910F91FF9053
:1001E000EF90DF90CF90BF90AF9008950F931F9343
:1001F000CF938C01C62F617008960E94E604C1FB64
:10020000662760F9C8010C960E94E604C2FB6627C7
:1002100060F9C80140960E94E604C3FB662760F9B6
:10022000C80144960E94E604CF911F910F91089552
:10023000CF93DF93009779F0EC01249661E0CE0133
:100240000E94E6048DE08A95F1F7000060E0CE019F
:100250000E94E60401C081E0DF91CF9108951F93D1
:10026000CF93DF930097B1F0162FEC0160E00E946E
:10027000E604612F62956F70CE010E94F600CE01F8
:100280000E941801612FCE010E94F600CE010E944B
:10029000180101C081E0DF91CF911F9108951F9354
:1002A000CF93DF93009709F44EC0EC0104960E94AF
:1002B0006B04CE010E946B0410E00CC0812F90E013
:1002C0000296880F991F880F991F8C0F9D1F0E94FF
:1002D0006B041F5F143090F38FE39CE90197F1F7F3
:1002E00000C0000068E3CE010E942F018FE097E27A
:1002F0000197F1F700C0000068E3CE010E942F01D2
:100300008BE291E00197F1F700C0000068E3CE01B5
:100310000E942F0161E0CE010E942F0162E0CE0118
:100320000E942F0166E0CE010E942F016CE0CE01F9
:100330000E942F0168E2CE010E942F0160E8CE01E9
:100340000E942F0101C081E0DF91CF911F9108959C
:10035000623071F018F4613031F019C0633069F027
:10036000643081F014C06FE7640F0E942F0108957C
:100370006FEB640F0E942F01089563E9640F0E94E0
:100380002F01089563ED640F0E942F01089580E00E
:1003900008951F93CF93DF930097B1F0162FEC01D0
:1003A00061E00E94E604612F62956F70CE010E94A9
:1003B000F600CE010E941801612FCE010E94F600C6
:1003C000CE010E94180101C081E0DF91CF911F9101
:1003D00008951F93CF93DF93009749F0122FEC01FC
:1003E0000E94A801612FCE010E94C90101C081E0D5
:1003F000DF91CF911F9108950F931F93CF93DF93B8
:100400008C01EB01892B51F080E004C02196C801DA
:100410000E94C90168816111F9CF01C081E0DF91BB
:10042000CF911F910F91089583309105D9F034F445
:100430008130910549F0029771F00895843091055B
:10044000C1F00597E9F0089564E770E086EC90E06C
:100450000E94FC01089560E870E086EC90E00E9444
:10046000FC0108956BE870E086EC90E00E94FC01CE
:10047000089566E970E086EC90E00E94FC01089522
:1004800061EA70E086EC90E00E94FC010895833000
:100490009105B9F034F48130910549F0029761F08B
:1004A0001FC08430910591F00597A9F019C081E033
:1004B0006833B9F080E0089581E0643391F080E022
:1004C000089581E0633369F080E0089581E064334A
:1004D00041F080E0089581E0603319F080E00895F4
:1004E00080E00895CF93DF9361E086EC90E00E9476
:1004F0002F010E94660665E070E00E94D005EC01C5
:100500002196CE010E9414021092DE0006C06EED0C
:1005100070E08FED90E00E9487002091DE002223A2
:10052000B1F340E061E086EC90E00E94E901609167
:10053000DE00CE010E944702882361F061E086EC74
:1005400090E00E942F016CEA70E086EC90E00E943F
:10055000FC010BC061E086EC90E00E942F0166EB8D
:1005600070E086EC90E00E94FC012FEF89E698E1B4
:10057000215080409040E1F700C00000DF91CF9112
:100580000895E6ECF0E081E082831382118210820C
:10059000868317828583148280E090E017C0FC0177
:1005A000EE0FFF1FEE0FFF1FEA53FF4F21E02287E0
:1005B000138622E0280F2187FC013296EE0FFF1FE1
:1005C000EE0FFF1FEA53FF4F108201968430910512
:1005D00034F386EC90E00E944F0180E090E00EC082
:1005E000FC01EE0FFF1FEE0FFF1FE152FF4F21E056
:1005F00022831382818322E0208301968430910537
:100600007CF380E090E015C0FC01EE0FFF1FEE0FC1
:10061000FF1FE152FF4F128A138A818BFC0134962F
:10062000EE0FFF1FEE0FFF1FE152FF4F23E020836D
:1006300001968430910544F38FED90E00E945C00B8
:10064000089580E090E00E944900CB010E946B0673
:100650000E94C1020E947202FDCF1F920F920FB63C
:100660000F9211248F939F9384B195B190930001C1
:100670008093FF009F918F910F900FBE0F901F905E
:100680001895FC01892B09F445C080818130A9F0BF
:1006900028F0823009F1833071F13EC02BB381E044
:1006A00090E0018002C0880F991F0A94E2F7822B24
:1006B0008BBB81E0838380E0089528B381E090E0E4
:1006C000018002C0880F991F0A94E2F7822B88BB31
:1006D00081E0838380E0089525B381E090E001808C
:1006E00002C0880F991F0A94E2F7822B85BB81E034
:1006F000838380E0089522B381E090E0018002C00E
:10070000880F991F0A94E2F7822B82BB81E08383D2
:1007100080E0089581E0089581E00895FC01892B2F
:1007200009F445C080818130A9F028F0823009F1B8
:10073000833071F13EC02BB381E090E0018002C0B4
:10074000880F991F0A94E2F7809582238BBB13824E
:1007500080E0089528B381E090E0018002C0880F16
:10076000991F0A94E2F78095822388BB138280E068
:10077000089525B381E090E0018002C0880F991FA1
:100780000A94E2F78095822385BB138280E0089566
:1007900022B381E090E0018002C0880F991F0A9483
:1007A000E2F78095822382BB138280E0089581E086
:1007B000089581E00895FC01892B09F484C08281A9
:1007C000811141C080818130A1F028F08230F9F0A0
:1007D000833059F17AC02AB381E090E0018002C0F1
:1007E000880F991F0A94E2F7809582238ABB80E0E4
:1007F000089527B381E090E0018002C0880F991F1F
:100800000A94E2F78095822387BB80E0089524B3A1
:1008100081E090E0018002C0880F991F0A94E2F7FE
:100820008095822384BB80E0089521B381E090E02D
:10083000018002C0880F991F0A94E2F780958223F5
:1008400081BB80E00895813009F041C08081813012
:1008500099F028F08230E9F0833041F13AC02AB3B0
:1008600081E090E0018002C0880F991F0A94E2F7AE
:10087000822B8ABB80E0089527B381E090E001805D
:1008800002C0880F991F0A94E2F7822B87BB80E091
:10089000089524B381E090E0018002C0880F991F81
:1008A0000A94E2F7822B84BB80E0089521B381E0B3
:1008B00090E0018002C0880F991F0A94E2F7822B12
:1008C00081BB80E0089581E0089581E0089580E093
:1008D000089581E00895CF93DF93EC010E94DB033C
:1008E000209779F08B81811105C0CE010E948E0383
:1008F00080E00AC0813039F4CE010E94410380E0DB
:1009000003C081E001C080E0DF91CF91089500979E
:1009100009F456C06115710509F454C0FC01208129
:100920002130C1F028F0223039F12330B9F14CC028
:1009300029B330E0A901FC01018002C0559547951B
:100940000A94E2F7CA0191E080FF90E0FB019083F6
:1009500080E0089526B330E0A901FC01018002C0C7
:10096000559547950A94E2F7CA0191E080FF90E01F
:10097000FB01908380E0089523B330E0A901FC01DE
:10098000018002C0559547950A94E2F7CA0191E0AB
:1009900080FF90E0FB01908380E0089520B330E079
:1009A000A901FC01018002C0559547950A94E2F720
:1009B000CA0191E080FF90E0FB01908380E0089500
:1009C00081E0089581E0089581E00895009751F055
:1009D000662321F00E94410380E008950E948E0367
:1009E00080E0089581E008951F920F920FB60F9254
:1009F00011242F933F934F935F936F937F938F9324
:100A00009F93AF93BF93EF93FF93E091C200F09158
:100A1000C300309709F009958BB780648BBFFF91B5
:100A2000EF91BF91AF919F918F917F916F915F9166
:100A30004F913F912F910F900FBE0F901F901895DF
:100A40001F920F920FB60F9211242F933F934F9343
:100A50005F936F937F938F939F93AF93BF93EF9326
:100A6000FF93E091C000F091C100309709F0099523
:100A70008BB780688BBFFF91EF91BF91AF919F9132
:100A80008F917F916F915F914F913F912F910F9037
:100A90000FBE0F901F9018951F920F920FB60F92D6
:100AA00011242F933F934F935F936F937F938F9373
:100AB0009F93AF93BF93EF93FF93E091BE00F091AC
:100AC000BF00309709F009958BB780628BBFFF910B
:100AD000EF91BF91AF919F918F917F916F915F91B6
:100AE0004F913F912F910F900FBE0F901F9018952F
:100AF0001F920F920FB60F9211242F933F934F9393
:100B00005F936F937F938F939F93AF93BF93EF9375
:100B1000FF93E091C400F091C5000680F781E02DBD
:100B2000309709F00995FF91EF91BF91AF919F9197
:100B30008F917F916F915F914F913F912F910F9086
:100B40000FBE0F901F9018951F920F920FB60F9225
:100B500011242F933F934F935F936F937F938F93C2
:100B60009F93AF93BF93EF93FF93E091C400F091F5
:100B7000C5000084F185E02D309709F00995FF91BB
:100B8000EF91BF91AF919F918F917F916F915F9105
:100B90004F913F912F910F900FBE0F901F9018957E
:100BA00097FB072E16F4009407D077FD09D00E941A
:100BB000060607FC05D03EF4909581959F4F089559
:100BC000709561957F4F0895A1E21A2EAA1BBB1B59
:100BD000FD010DC0AA1FBB1FEE1FFF1FA217B30709
:100BE000E407F50720F0A21BB30BE40BF50B661F1F
:100BF000771F881F991F1A9469F7609570958095E3
:100C000090959B01AC01BD01CF010895AA1BBB1BB0
:100C100051E107C0AA1FBB1FA617B70710F0A61BFC
:100C2000B70B881F991F5A95A9F780959095BC011D
:100C3000CD0108958F929F92AF92BF92CF92DF9293
:100C4000EF92FF92CF93DF93EC01688179818A81E3
:100C50009B81611571058105910521F464E279EDAF
:100C60008BE597E02DE133EF41E050E00E947606FE
:100C700049015A019B01AC01A7EAB1E40E94950623
:100C80006B017C01ACEEB4EFA50194010E94A306B8
:100C9000DC01CB018C0D9D1DAE1DBF1DB7FF03C038
:100CA0000197A109B04888839983AA83BB839F7762
:100CB000DF91CF91FF90EF90DF90CF90BF90AF90FA
:100CC0009F908F9008950E941A06089580E690E004
:100CD0000E941A060895A0E0B0E08093600090930F
:100CE0006100A0936200B09363000895052E97FB06
:100CF0001EF400940E948D0657FD07D00E94E40563
:100D000007FC03D04EF40C948D0650954095309519
:100D100021953F4F4F4F5F4F089590958095709567
:100D200061957F4F8F4F9F4F08950E94A806A59F02
:100D3000900DB49F900DA49F800D911D11240895D6
:100D4000B7FF0C9495060E949506821B930B08959D
:100D5000A29FB001B39FC001A39F700D811D1124FC
:100D6000911DB29F700D811D1124911D0895F8945D
:020D7000FFCFB3
:100D7200010000003738392F3435362A3132332D0D
:100D820023303D2B203130202D2032203D203F00CA
:100D92002037202D2033203D203F002036202F20D9
:100DA20032203D203F002038202F2032203D203F9E
:100DB200002035202D2035203D203F0020436F723A
:0E0DC2007265637421002057726F6E67210006
:00000001FF
