:100000000C942A000C943F000C943F000C943F0089
:100010000C943F000C943F000C943F000C943F0064
:100020000C943F000C943F000C943F000C943F0054
:100030000C943F000C943F000C943F000C943F0044
:100040000C943F000C943F000C943F000C943F0034
:100050000C943F0011241FBECFE5D8E0DEBFCDBF1A
:1000600010E0A0E6B0E0E2EDF0E002C005900D92F5
:10007000A036B107D9F70E9441000C9467000C9498
:100080000000CF93DF931F92CDB7DEB70E945900D7
:10009000198289810E94620089818F5F89832FEF95
:1000A00084E39CE0215080409040E1F700C00000D4
:1000B000F0CF87B3806B87BB87B38F7B87BB81E52E
:1000C0008DB908958FB9779BFECF8FB10895F894BD
:0200D000FFCF60
:00000001FF
