:100000000C942A000C949B020C94C7020C94F302EB
:100010000C9447000C9447000C9447000C94470044
:100020000C9447000C9447000C944B030C941F0352
:100030000C9447000C9447000C9447000C94470024
:100040000C946D000C9447000C9447000C944700EE
:100050000C94470011241FBECFE5D8E0DEBFCDBF12
:1000600010E0A0E6B0E0E2EFF6E002C005900D92ED
:10007000A036B107D9F720E0A0E6B0E001C01D929C
:10008000A237B207E1F70E944E000C9477030C945C
:1000900000008CE690E00E94C701089563E080E0D4
:1000A0000E94240280E00E947302E8E6F0E01282DF
:1000B000138282E0818393E09083ECE6F0E091E0AC
:1000C0009283938381838083CF010E94AB0169E493
:1000D00070E080E00E948602FFCF1F920F920FB661
:1000E0000F9211248F939F9384B195B190937100D7
:1000F000809370009F918F910F900FBE0F901F9073
:100100001895FC01892B09F445C080818130A9F044
:1001100028F0823009F1833071F13EC02BB381E0C9
:1001200090E0018002C0880F991F0A94E2F7822BA9
:100130008BBB81E0838380E0089528B381E090E069
:10014000018002C0880F991F0A94E2F7822B88BBB6
:1001500081E0838380E0089525B381E090E0018011
:1001600002C0880F991F0A94E2F7822B85BB81E0B9
:10017000838380E0089522B381E090E0018002C093
:10018000880F991F0A94E2F7822B82BB81E0838358
:1001900080E0089581E0089581E00895FC01892BB5
:1001A00009F445C080818130A9F028F0823009F13E
:1001B000833071F13EC02BB381E090E0018002C03A
:1001C000880F991F0A94E2F7809582238BBB1382D4
:1001D00080E0089528B381E090E0018002C0880F9C
:1001E000991F0A94E2F78095822388BB138280E0EE
:1001F000089525B381E090E0018002C0880F991F27
:100200000A94E2F78095822385BB138280E00895EB
:1002100022B381E090E0018002C0880F991F0A9408
:10022000E2F78095822382BB138280E0089581E00B
:10023000089581E00895FC01892B09F484C082812E
:10024000811141C080818130A1F028F08230F9F025
:10025000833059F17AC02AB381E090E0018002C076
:10026000880F991F0A94E2F7809582238ABB80E069
:10027000089527B381E090E0018002C0880F991FA4
:100280000A94E2F78095822387BB80E0089524B327
:1002900081E090E0018002C0880F991F0A94E2F784
:1002A0008095822384BB80E0089521B381E090E0B3
:1002B000018002C0880F991F0A94E2F7809582237B
:1002C00081BB80E00895813009F041C08081813098
:1002D00099F028F08230E9F0833041F13AC02AB336
:1002E00081E090E0018002C0880F991F0A94E2F734
:1002F000822B8ABB80E0089527B381E090E00180E3
:1003000002C0880F991F0A94E2F7822B87BB80E016
:10031000089524B381E090E0018002C0880F991F06
:100320000A94E2F7822B84BB80E0089521B381E038
:1003300090E0018002C0880F991F0A94E2F7822B97
:1003400081BB80E0089581E0089581E0089580E018
:10035000089581E00895CF93DF93EC010E941B0183
:10036000209779F08B81811105C0CE010E94CE00CB
:1003700080E00AC0813039F4CE010E94810080E023
:1003800003C081E001C080E0DF91CF910895FC01BE
:10039000892B09F455C080818130C9F028F0823062
:1003A00049F18330D1F14EC02BB381E090E0018060
:1003B00002C0880F991F0A94E2F782278BBB9381B2
:1003C00081E0913009F480E0838380E0089528B3D0
:1003D00081E090E0018002C0880F991F0A94E2F743
:1003E000822788BB938181E0913009F480E0838388
:1003F00080E0089525B381E090E0018002C0880F7D
:10040000991F0A94E2F7822785BB938181E091309E
:1004100009F480E0838380E0089522B381E090E0D6
:10042000018002C0880F991F0A94E2F7822782BBDD
:10043000938181E0913009F480E0838380E0089526
:1004400081E0089581E00895813011F118F0823043
:10045000E9F10895613051F028F0623071F06330B5
:1004600099F0089585B78C7F85BF089585B7816021
:1004700085BF85B78D7F85BF089585B7826085BFAD
:1004800085B78E7F85BF089585B7836085BF089542
:10049000613051F028F0623071F0633099F00895C6
:1004A00085B7837F85BF089585B7846085BF85B78D
:1004B000877F85BF089585B7886085BF85B78B7FA7
:1004C00085BF089585B78C6085BF0895623019F0A7
:1004D000633029F0089584B78F7B84BF089584B773
:1004E000806484BF08957894813041F018F08230A0
:1004F00049F008958BB780648BBF08958BB78068EF
:100500008BBF08958BB780628BBF0895813049F00F
:1005100018F0823059F0089570936500609364007C
:100520000895709363006093620008957093610072
:100530006093600008951F920F920FB60F921124DE
:100540002F933F934F935F936F937F938F939F93DB
:10055000AF93BF93EF93FF93E0916400F091650038
:10056000309709F009958BB780648BBFFF91EF91AD
:10057000BF91AF919F918F917F916F915F914F91BB
:100580003F912F910F900FBE0F901F9018951F92C3
:100590000F920FB60F9211242F933F934F935F93B7
:1005A0006F937F938F939F93AF93BF93EF93FF933B
:1005B000E0916200F0916300309709F009958BB7E4
:1005C00080688BBFFF91EF91BF91AF919F918F9109
:1005D0007F916F915F914F913F912F910F900FBE3F
:1005E0000F901F9018951F920F920FB60F92112423
:1005F0002F933F934F935F936F937F938F939F932B
:10060000AF93BF93EF93FF93E0916000F09161008F
:10061000309709F009958BB780628BBFFF91EF91FE
:10062000BF91AF919F918F917F916F915F914F910A
:100630003F912F910F900FBE0F901F9018951F9212
:100640000F920FB60F9211242F933F934F935F9306
:100650006F937F938F939F93AF93BF93EF93FF938A
:10066000E0916600F09167000680F781E02D3097F9
:1006700009F00995FF91EF91BF91AF919F918F91F3
:100680007F916F915F914F913F912F910F900FBE8E
:100690000F901F9018951F920F920FB60F92112472
:1006A0002F933F934F935F936F937F938F939F937A
:1006B000AF93BF93EF93FF93E0916600F0916700D3
:1006C0000084F185E02D309709F00995FF91EF91B5
:1006D000BF91AF919F918F917F916F915F914F915A
:1006E0003F912F910F900FBE0F901F901895F89487
:0206F000FFCF3A
:00000001FF
