:100000000C942A000C943F000C943F000C943F0089
:100010000C943F000C943F000C943F000C943F0064
:100020000C943F000C943F000C943F000C943F0054
:100030000C943F000C943F000C943F000C943F0044
:100040000C943F000C943F000C943F000C943F0034
:100050000C943F0011241FBECFE5D8E0DEBFCDBF1A
:1000600010E0A0E6B0E0E6ECF0E002C005900D92F2
:10007000A036B107D9F70E9441000C9461000C949E
:1000800000000E94530080E0C1E0C80F0E945C00A5
:100090002FEF84E39CE0215080409040E1F700C0C6
:1000A00000008C2FF1CF87B3806B87BB87B38F7B2A
:1000B00087BB81E58DB908958FB9779BFECF8FB14E
:0600C0000895F894FFCF43
:00000001FF
