:100000000C942A000C943F000C943F000C943F0089
:100010000C943F000C943F000C943F000C943F0064
:100020000C943F000C943F000C943F000C943F0054
:100030000C943F000C943F000C943F000C943F0044
:100040000C943F000C943F000C943F000C943F0034
:100050000C943F0011241FBECFE5D8E0DEBFCDBF1A
:1000600010E0A0E6B0E0EAE5F5E002C005900D92F0
:10007000A037B107D9F70E942B010C94AB020C9466
:1000800000000F931F93CF938C01C62F61700896C9
:100090000E949D02C1FB662760F9C8010C960E9470
:1000A0009D02C2FB662760F9C80140960E949D022E
:1000B000C3FB662760F9C80144960E949D02CF9158
:1000C0001F910F910895CF93DF93009779F0EC0182
:1000D000249661E0CE010E949D028DE08A95F1F7A1
:1000E000000060E0CE010E949D0201C081E0DF912E
:1000F000CF9108951F93CF93DF930097B1F0162F00
:10010000EC0160E00E949D02612F62956F70CE014C
:100110000E944100CE010E946300612FCE010E9427
:100120004100CE010E94630001C081E0DF91CF91C8
:100130001F9108951F93CF93DF93009709F44EC04A
:10014000EC0104960E948102CE010E94810210E01F
:100150000CC0812F90E00296880F991F880F991F7D
:100160008C0F9D1F0E9481021F5F143090F38FE35C
:100170009CE90197F1F700C0000068E3CE010E94FE
:100180007A008FE097E20197F1F700C0000068E382
:10019000CE010E947A008BE291E00197F1F700C056
:1001A000000068E3CE010E947A0061E0CE010E9467
:1001B0007A0062E0CE010E947A0066E0CE010E94E1
:1001C0007A006CE0CE010E947A0068E2CE010E94C3
:1001D0007A0060E8CE010E947A0001C081E0DF91E0
:1001E000CF911F9108951F93CF93DF930097B1F0A4
:1001F000162FEC0161E00E949D02612F62956F70E5
:10020000CE010E944100CE010E946300612FCE0109
:100210000E944100CE010E94630001C081E0DF9195
:10022000CF911F9108950F931F93CF93DF938C016C
:10023000EB01892B51F080E004C02196C8010E9497
:10024000F30068816111F9CF01C081E0DF91CF91A6
:100250001F910F910895CF93DF93CDB7DEB76897C5
:100260000FB6F894DEBF0FBECDBF81E08B871A8634
:1002700019868F871D868E878B8B198A92E09A8BC1
:100280008F8B1D8A93E09E8B8F831D8294E09E83CB
:100290008B83198285E08A83CE0101960E949A00A1
:1002A00060E670E0CE0101960E941301FFCFFC01D1
:1002B000892B09F445C080818130A9F028F0823073
:1002C00009F1833071F13EC02BB381E090E00180F1
:1002D00002C0880F991F0A94E2F7822B8BBB81E042
:1002E000838380E0089528B381E090E0018002C01C
:1002F000880F991F0A94E2F7822B88BB81E08383E1
:1003000080E0089525B381E090E0018002C0880F6D
:10031000991F0A94E2F7822B85BB81E0838380E0FA
:10032000089522B381E090E0018002C0880F991FF8
:100330000A94E2F7822B82BB81E0838380E00895F8
:1003400081E0089581E00895FC01892B09F445C0FE
:1003500080818130A9F028F0823009F1833071F179
:100360003EC02BB381E090E0018002C0880F991F4E
:100370000A94E2F7809582238BBB138280E0089574
:1003800028B381E090E0018002C0880F991F0A9491
:10039000E2F78095822388BB138280E0089525B31D
:1003A00081E090E0018002C0880F991F0A94E2F773
:1003B0008095822385BB138280E0089522B381E07B
:1003C00090E0018002C0880F991F0A94E2F780959F
:1003D000822382BB138280E0089581E0089581E04A
:1003E0000895FC01892B09F484C08281811141C0E8
:1003F00080818130A1F028F08230F9F0833059F10A
:100400007AC02AB381E090E0018002C0880F991F72
:100410000A94E2F7809582238ABB80E0089527B38F
:1004200081E090E0018002C0880F991F0A94E2F7F2
:100430008095822387BB80E0089524B381E090E01B
:10044000018002C0880F991F0A94E2F780958223E9
:1004500084BB80E0089521B381E090E0018002C078
:10046000880F991F0A94E2F78095822381BB80E070
:100470000895813009F041C08081813099F028F0E1
:100480008230E9F0833041F13AC02AB381E090E054
:10049000018002C0880F991F0A94E2F7822B8ABB61
:1004A00080E0089527B381E090E0018002C0880FCA
:1004B000991F0A94E2F7822B87BB80E0089524B34A
:1004C00081E090E0018002C0880F991F0A94E2F752
:1004D000822B84BB80E0089521B381E090E001800D
:1004E00002C0880F991F0A94E2F7822B81BB80E03B
:1004F000089581E0089581E0089580E0089581E005
:100500000895CF93DF93EC010E94F101209779F0D9
:100510008B81811105C0CE010E94A40180E00AC038
:10052000813039F4CE010E94570180E003C081E0A0
:1005300001C080E0DF91CF910895009751F06623CC
:1005400021F00E94570180E008950E94A40180E0FC
:0A055000089581E00895F894FFCFAC
:10055A004C6561726E20696E206465707468000073
:00000001FF
