S00B00004176722E73726563F0
S11300000C942A000C9472030C949E030C94CA035F
S11300100C9447000C9447000C9447000C94470040
S11300200C9447000C9447000C9422040C94F6039F
S11300300C9447000C9447000C9447000C94470020
S11300400C94AB010C9447000C9447000C944700AB
S11300500C94470011241FBECFE5D8E0DEBFCDBF0E
S113006010E0A0E6B0E0E0EAF8E002C005900D92EE
S1130070A837B107D9F720E0A8E7B0E001C01D9286
S1130080AA3AB207E1F70E9495010C944E040C942D
S113009000000F931F93CF93DF938C01C0E0D0E057
S11300A00AC0CE01880F991F880F991F800F911FD6
S11300B00E94E9022196C430D1059CF3C0E0D0E04F
S11300C00BC0CE010496880F991F880F991F800FCB
S11300D0911F0E94E9022196C430D10594F3DF9167
S11300E0CF911F910F910895AF92BF92CF92DF925B
S11300F0EF92FF920F931F93CF93DF931F92CDB78D
S1130100DEB77C015B01C12CD12C4CC0198200E00C
S113011010E00CC0C801880F991F880F991F60E078
S11301208E0D9F1D0E9464030F5F1F4F0430110545
S11301308CF361E0C601880F991F880F991F8E0DFB
S11301409F1D0E9464038FE59AEE0197F1F700C0AA
S1130150000000E010E020C0C8010496880F991F39
S1130160880F991FBE016F5F7F4F8E0D9F1D0E94E8
S113017005038981813071F4C601880F991F880FA6
S1130180991F88599F4FFC01E00FF11F8081F501F1
S1130190808305C00F5F1F4F04301105ECF2FFEFA1
S11301A0CF1ADF0A84E0C816D1040CF4AFCF0F9045
S11301B0DF91CF911F910F91FF90EF90DF90CF903F
S11301C0BF90AF900895CF93E4EAF0E0C1E0C2831A
S11301D013821182C083CF010E94E902E0EAF0E0B9
S11301E0C2831382C183C083CF010E94E902CF91ED
S11301F0089580E090E00EC0FC01EE0FFF1FEE0FAB
S1130200FF1FE058FF4F21E022831382818322E005
S113021020830196843091057CF380E090E015C042
S1130220FC01EE0FFF1FEE0FFF1FE058FF4F128A75
S1130230138A818BFC013496EE0FFF1FEE0FFF1F14
S1130240E058FF4F23E0208301968430910544F366
S113025080E890E00E94490008950F931F93CF9384
S1130260DF931F92CDB7DEB7198200E010E010C013
S1130270BE016F5F7F4F80E890E00E947400898127
S11302808837B1F3F801EC59FF4F80830F5F1F4F9C
S1130290043011056CF30F90DF91CF911F910F91F2
S11302A0089580E090E00BC0FC01E05AFF4F3081DC
S11302B0FC01EC59FF4F2081321306C001968430B3
S11302C0910594F381E0089580E0089580E090E042
S11302D006C0FC01EC59FF4F28E7208301968430C7
S11302E09105BCF31092A7001092A30084EA90E059
S11302F00E94E90280EA90E00E94E90208958823BE
S113030031F081E08093A7001092A30005C0109201
S1130310A70081E08093A30084EA90E00E94E902B0
S113032080EA90E00E94E90208950E94E3000E949E
S1130330F9000E942D010E9451010E947F012FEFBC
S113034089E698E1215080409040E1F700C0000028
S11303500E946601EECF1F920F920FB60F921124E6
S11303608F939F9384B195B19093A9008093A80033
S11303709F918F910F900FBE0F901F901895FC01C5
S1130380892B09F445C080818130A9F028F082309E
S113039009F1833071F13EC02BB381E090E001801C
S11303A002C0880F991F0A94E2F7822B8BBB81E06D
S11303B0838380E0089528B381E090E0018002C047
S11303C0880F991F0A94E2F7822B88BB81E083830C
S11303D080E0089525B381E090E0018002C0880F99
S11303E0991F0A94E2F7822B85BB81E0838380E026
S11303F0089522B381E090E0018002C0880F991F24
S11304000A94E2F7822B82BB81E0838380E0089523
S113041081E0089581E00895FC01892B09F445C029
S113042080818130A9F028F0823009F1833071F1A4
S11304303EC02BB381E090E0018002C0880F991F79
S11304400A94E2F7809582238BBB138280E008959F
S113045028B381E090E0018002C0880F991F0A94BC
S1130460E2F78095822388BB138280E0089525B348
S113047081E090E0018002C0880F991F0A94E2F79E
S11304808095822385BB138280E0089522B381E0A6
S113049090E0018002C0880F991F0A94E2F78095CA
S11304A0822382BB138280E0089581E0089581E075
S11304B00895FC01892B09F484C08281811141C013
S11304C080818130A1F028F08230F9F0833059F135
S11304D07AC02AB381E090E0018002C0880F991F9E
S11304E00A94E2F7809582238ABB80E0089527B3BB
S11304F081E090E0018002C0880F991F0A94E2F71E
S11305008095822387BB80E0089524B381E090E046
S1130510018002C0880F991F0A94E2F78095822314
S113052084BB80E0089521B381E090E0018002C0A3
S1130530880F991F0A94E2F78095822381BB80E09B
S11305400895813009F041C08081813099F028F00C
S11305508230E9F0833041F13AC02AB381E090E07F
S1130560018002C0880F991F0A94E2F7822B8ABB8C
S113057080E0089527B381E090E0018002C0880FF5
S1130580991F0A94E2F7822B87BB80E0089524B375
S113059081E090E0018002C0880F991F0A94E2F77D
S11305A0822B84BB80E0089521B381E090E0018038
S11305B002C0880F991F0A94E2F7822B81BB80E066
S11305C0089581E0089581E0089580E0089581E030
S11305D00895CF93DF93EC010E945902209779F09C
S11305E08B81811105C0CE010E940C0280E00AC0FB
S11305F0813039F4CE010E94BF0180E003C081E064
S113060001C080E0DF91CF910895009709F456C0AE
S11306106115710509F454C0FC0120812130C1F039
S113062028F0223039F12330B9F14CC029B330E03D
S1130630A901FC01018002C0559547950A94E2F78F
S1130640CA0191E080FF90E0FB01908380E008956F
S113065026B330E0A901FC01018002C055954795FD
S11306600A94E2F7CA0191E080FF90E0FB019083D5
S113067080E0089523B330E0A901FC01018002C0A9
S1130680559547950A94E2F7CA0191E080FF90E0FE
S1130690FB01908380E0089520B330E0A901FC01C0
S11306A0018002C0559547950A94E2F7CA0191E08A
S11306B080FF90E0FB01908380E0089581E008953D
S11306C081E0089581E00895009751F0662321F0B8
S11306D00E94BF0180E008950E940C0280E008950A
S11306E081E008951F920F920FB60F9211242F9359
S11306F03F934F935F936F937F938F939F93AF93A6
S1130700BF93EF93FF93E0917C00F0917D003097CD
S113071009F009958BB780648BBFFF91EF91BF916E
S1130720AF919F918F917F916F915F914F913F9185
S11307302F910F900FBE0F901F9018951F920F923C
S11307400FB60F9211242F933F934F935F936F93A0
S11307507F938F939F93AF93BF93EF93FF93E09116
S11307607A00F0917B00309709F009958BB7806887
S11307708BBFFF91EF91BF91AF919F918F917F912B
S11307806F915F914F913F912F910F900FBE0F90FA
S11307901F9018951F920F920FB60F9211242F934A
S11307A03F934F935F936F937F938F939F93AF93F5
S11307B0BF93EF93FF93E0917800F0917900309725
S11307C009F009958BB780628BBFFF91EF91BF91C0
S11307D0AF919F918F917F916F915F914F913F91D5
S11307E02F910F900FBE0F901F9018951F920F928C
S11307F00FB60F9211242F933F934F935F936F93F0
S11308007F938F939F93AF93BF93EF93FF93E09165
S11308107E00F0917F000680F781E02D309709F08B
S11308200995FF91EF91BF91AF919F918F917F9126
S11308306F915F914F913F912F910F900FBE0F9049
S11308401F9018951F920F920FB60F9211242F9399
S11308503F934F935F936F937F938F939F93AF9344
S1130860BF93EF93FF93E0917E00F0917F000084AB
S1130870F185E02D309709F00995FF91EF91BF9133
S1130880AF919F918F917F916F915F914F913F9124
S11308902F910F900FBE0F901F901895F894FFCFD3
S11308A031323334787878783738392F3435362AFA
S10B08B03132332D23303D2BBE
S9030000FC
