:100000000C942A000C9434000C9434000C943400AA
:100010000C9434000C9434000C9434000C94340090
:100020000C9434000C9434000C9434000C94340080
:100030000C9434000C9434000C9434000C94340070
:100040000C9434000C9434000C9434000C94340060
:100050000C94340011241FBECFE5D8E0DEBFCDBF25
:100060000E9444000C944F000C94000087B38064FD
:1000700087BB87B38F7487BB80E48DB908958FB930
:10008000779BFECF8FB108958FEF8ABB0E94360019
:10009000CFEF8C2F0E943F008BBBC150FACFF8945A
:0200A000FFCF90
:00000001FF
