:020000040800F2
:100000000028002035060008850600087101000858
:100010007301000875010008850600080000000053
:100020000000000000000000000000007701000850
:100030008506000800000000A501000885060008EC
:100040008506000885060008850600088506000864
:100050008506000885060008A9020008C5020008F8
:10006000E1020008FD0200081903000885060008E7
:100070008506000885060008850600088506000834
:100080008506000885060008850600088506000824
:100090008506000885060008850600083503000867
:1000A0008506000885060008850600088506000804
:1000B0008506000885060008850600084D0400082E
:1000C000C5030008F7040008F5040008F904000857
:1000D0002905000859050008690500087905000888
:1000E0008506000885060008000000008506000857
:1000F00085060008850600088506000885060008B4
:1001000085060008850600088506000885060008A3
:100110008506000885060008850600088506000893
:100120008506000885060008850600088506000883
:1001300010B5054C237833B9044B13B10448AFF321
:1001400000800123237010BD00000020000000008B
:10015000D006000808B5034B1BB103490348AFF3B1
:10016000008008BD0000000004000020D006000848
:10017000FEE7FEE7FEE71EF0040F0CBFEFF308807A
:10018000EFF3098000F00DB839B1C16041608160C2
:10019000026100230360184670470320704700BFC8
:1001A000FDE7704770470000064B074AC2F89031E0
:1001B000A3F54061C2F89411A3F60843C2F8983140
:1001C000704700BF002800200402002010B403691B
:1001D0001A1F82614FF0807243F8042C83691A1F42
:1001E0008261826843F8042C83691A1F82616FF070
:1001F000020243F8042C0D2300248269111F81613F
:1002000042F8044C013BF8D110BC70470C4BD3F8BA
:100210009831036102689B1A43610A4A93420DD3E5
:1002200010B50446064AD2F89431083BC2F898311A
:10023000FFF7CCFF002084F83A0010BD0220704781
:10024000040200201805002038B5114B002283F865
:10025000A821FFF7A9FF64220E490F48FFF794FF7A
:1002600004460E4D0E4A2B4607CA03C31A80A5F159
:100270001C00FF2303710B4B83604FF4967345F80A
:100280001C3CFFF7C3FF002C18BF0130C0B238BDC3
:100290000402002060000020F0010020380000204F
:1002A000E80600089F01000808B5044A536943F0B6
:1002B00001035361024B1B68984708BD00040140CD
:1002C000B003002008B5044A536943F002035361A8
:1002D000024B5B68984708BD00040140B003002052
:1002E00008B5044A536943F004035361024B9B6809
:1002F000984708BD00040140B003002008B5044A37
:10030000536943F008035361024BDB68984708BD0B
:1003100000040140B003002008B5044A536943F0CB
:1003200010035361024B1B69984708BD000401404C
:10033000B003002008B5214B5B6913F0200F07D0F4
:100340001E4A536943F0200353611D4B5B69984774
:100350001A4B5B6913F0400F07D0184A536943F0FA
:1003600040035361164B9B699847144B5B6913F02C
:10037000800F07D0114A536943F080035361104B3B
:10038000DB6998470D4B5B6913F4807F07D00B4AFC
:10039000536943F480735361094B1B6A9847074BB9
:1003A0005B6913F4007F07D0044A536943F4007378
:1003B0005361034B5B6A984708BD00BF00040140CE
:1003C000B00300207047000008B51E4BC31A18BFC9
:1003D0000123042905D8DFE801F00503121B2800DA
:1003E000836908BD826912F0040FFAD003EBC303DE
:1003F000154A02EB83031B6A00209847F1E703EBE1
:10040000C303114A02EB83031B6A02209847E8E703
:10041000826912F0040FE4D003EBC3030A4A02EB33
:1004200083031B6A03209847DBE7826912F0040FFD
:10043000D7D103EBC303044A02EB83031B6A0420F6
:100440009847CEE700540040F003002010B582B07A
:1004500000230193264B5A685C685B6912F4007FA5
:1004600040D013F0100F0CD1214B5B6913F0020F39
:100470000ED11F4B5B6914F4806F17D11C4B5B6965
:1004800034E01B48036803600021FFF79DFFEBE7A2
:10049000174B9B6913F0010FEBD11548436901938A
:1004A000836901930221FFF78FFFE2E713F0800FCA
:1004B00004D00F4B9B6913F0010F0ED00C4B5B69FE
:1004C00013F0400F12D00A4B9B6913F0010F0DD1AE
:1004D00004210748FFF778FF08E003210448FFF7ED
:1004E00073FFEBE7024B5A695A695B6902B010BDB2
:1004F000005400407047704708B5094B9A6852088D
:100500004FF0000062F300009A6862F341009B68BC
:100510001B0963F38200034B1B685B69984708BDA6
:10052000003001403804002008B5094B9A68520891
:100530004FF0000062F300009A6862F341009B688C
:100540001B0963F38200034B5B685B69984708BD36
:10055000003800403804002008B5024B1B681B69B6
:10056000984708BD4004002008B5024B1B681B6972
:10057000984708BD4004002008B5024B1B681B6962
:10058000984708BD40040020FEE7FEE7FEE70000B4
:1005900008B5FFF759FE00B1FEE71C4B4FF480662B
:1005A0001E601B4A9A6003221A711A4903C9D86156
:1005B0001984090C83F82210174D2E601749A96081
:1005C0002A71174903C9E8612984090C85F82210AA
:1005D000144C26601449A1602271144A92E8030069
:1005E000E0612184090C84F822101846FFF70EFE02
:1005F0000F4E3378034433702846FFF707FE3378F5
:10060000034433702046FFF701FEFEE7D0040020CC
:1006100089050008F40600088C0400208B050008FA
:10062000FC060008480400208D05000804070008A7
:10063000440400200D488546AFF300800C480D4966
:100640000D4A002302E0D458C4500433C4188C422D
:10065000F9D30A4A0A4C002301E013600432A24293
:10066000FBD300F011F8FFF793FFFEE7002800200E
:1006700000000020000000201407000800000020F7
:1006800014050020FEE7000070B500260C4D0D4C4F
:10069000641BA410A64209D100F01AF800260A4DE6
:1006A0000A4C641BA410A64205D170BD55F8043B4A
:1006B00098470136EEE755F8043B98470136F2E7D4
:1006C0000C0700080C0700080C07000810070008BA
:1006D000F8B500BFF8BC08BC9E467047F8B500BF2F
:0806E000F8BC08BC9E467047FF
:1006E80069646C65205461736B0000005461736B1E
:1006F8005F3100005461736B5F3200005461736BAB
:040708005F3300005B
:04070C00550100088B
:0407100031010008AB
:0400000508000635B4
:00000001FF
