S0120000535049204D61737465722E737265639A
S11300000C942A000C9434000C9434000C943400A6
S11300100C9434000C9434000C9434000C9434008C
S11300200C9434000C9434000C9434000C9434007C
S11300300C9434000C9434000C9434000C9434006C
S11300400C9434000C9434000C9434000C9434005C
S11300500C94340011241FBECFE5D8E0DEBFCDBF21
S11300600E944A000C9472000C94000087B3806BC9
S113007087BB8DB181658DB9089598B39F7E98BB78
S11300808FB9779BFECF6FB9779BFECF88B3806122
S113009088BB08950E9436006FEF89E00E943D00FE
S11300A06FEF8AE00E943D0067EF8BE00E943D0005
S11300B061E08CE00E943D0060E0C1E007C0D1E057
S11300C0D60F8C2F0E943D00CF5F6D2FC930B8F33F
S11300D02FE38DE093E0215080409040E1F700C091
S10B00E00000EBCFF894FFCF00
S9030000FC
